:100000000C9456000C947F000C947F000C947F009D
:100010000C947F000C947F000C947F000C947F0064
:100020000C947F000C947F000C947F000C947F0054
:100030000C947F000C947F000C947F000C947F0044
:100040000C947F000C947F000C947F000C947F0034
:100050000C947F000C947F000C947F000C947F0024
:100060000C947F000C9424020C947F000C94580292
:100070000C947F000C947F000C947F000C947F0004
:100080000C947F000C947F000C947F000C947F00F4
:100090000C947F000C947F000C947F000C947F00E4
:1000A0000C947F000C947F000C947F0011241FBEE1
:1000B000CFEFDAE0DEBFCDBF14BE0FB6F894A8953F
:1000C00080916000886180936000109260000FBE94
:1000D00011E0A0E0B1E0EAE2F7E002C005900D9285
:1000E000A630B107D9F723E0A6E0B1E001C01D9228
:1000F000AD32B207E1F70E9404030C9493030C9411
:100100000000259A239A279A249A269808958823EE
:1001100011F02D9A08952D980895882311F02B9AA7
:1001200008952B9808950E94810080E00E94870026
:1001300081E00E948D000895882311F02F9A089580
:100140002F980895882311F02C9A08952C980895DB
:10015000EF92FF921F93CF93DF93E82E80E00E94EF
:100160009C00C7E0D0E010E0F12C97010C2E02C0FB
:10017000359527950A94E2F720FF04C081E00E949C
:10018000A20003C080E00E94A20081E00E949C00C7
:10019000110F1E99116080E00E949C00219728F7A2
:1001A000812FDF91CF911F91FF90EF900895CF9312
:1001B00080E00E948D008FEF0E94A800C82F81E090
:1001C0000E948D008C2FCF910895EF92FF920F9394
:1001D0001F93CF93DF934423A1F0EC01062F172F39
:1001E0004150E42EF12C2FEFE21AF20AE80EF91E2C
:1001F00089910E94A800F80181938F01CE15DF0537
:10020000B9F7DF91CF911F910F91FF90EF90089573
:100210000F931F93CF93DF93662371F0EC0161502E
:10022000062F10E00F5F1F4F080F191F89910E94C2
:10023000A800C017D107D1F7DF91CF911F910F917F
:100240000895CF93DF93C82FD62F80E00E948D00B2
:100250008C2F8F7180620E94A8008D2F0E94A800B1
:1002600081E00E948D00DF91CF91089580E00E948F
:10027000870068E080E00E9421010895CF93DF931A
:10028000EC0180E00E948D0081E60E94A800409170
:100290000C03BE01CE010E94E50081E00E948D00AA
:1002A00060E487E00E942101DF91CF91089580E012
:1002B0000E948D0082EE0E94A80081E00E948D00C5
:1002C00060E787E00E94210180E00E9487006BE0E8
:1002D00080E00E94210181E00E94870008956093E0
:1002E0000C03682F85E00E94210160E081E10E94FB
:1002F000210160910C0382E10E94210160E083E111
:100300000E94210160E084E10E94210160E085E11A
:100310000E94210160E086E10E9421016EE086E0FA
:100320000E94210168E080E00E94210163E081E0F9
:100330000E94210163E082E00E9421016FE484E0D9
:100340000E94210160E08CE10E9421010E9457017E
:1003500008950F931F93CF93DF93082FEB01142F72
:1003600080E00E948D00802F8F710E94A800412F95
:10037000BE01CE010E94E50081E00E948D00DF9168
:10038000CF911F910F910895CF93DF931F92CDB717
:10039000DEB741E0BE016F5F7F4F87E10E94A90198
:1003A000898181700F90DF91CF9108950E94D700CD
:1003B00086FD07C00E94C40191E0882319F090E0F7
:1003C00001C091E0892F08950F931F93CF93DF937E
:1003D000C82F8B01D42F80E00E948D008C2F8F714D
:1003E00080620E94A8006D2FC8010E94080181E070
:1003F0000E948D00DF91CF911F910F910895CF93AF
:10040000DF93EC0180E00E94870045E0BE018BE0B5
:100410000E94E40181E00E948700DF91CF9108955E
:100420001092CD0083E08093CC00EAECF0E0808174
:100430008E608083E9ECF0E0808188648083109294
:10044000CE0010920B0308951F920F920FB60F92D9
:1004500011248F939F93EF93FF938091C80084FFA3
:100460000CC010920701109206018091CE00E8ECBA
:10047000F0E080818F7E808309C0E0910601F091D9
:1004800007018091CE00EA5FFE4F808380910601D4
:100490009091070101969093070180930601FF91C7
:1004A000EF919F918F910F900FBE0F901F90189515
:1004B0001F920F920FB60F9211242F933F938F9399
:1004C0009F93EF93FF9380910B0381110BC01092C8
:1004D000CD008AE08093CC001092CE0081E0809322
:1004E0000B032DC0813079F41092CD0083E080930E
:1004F000CC001092CE0082E080930B0310920A038E
:10050000109209031CC085E38A95F1F700008091E1
:10051000090390910A039C012F5F3F4FFC01E85FA4
:10052000FE4F80818093CE00213082E0380719F49D
:1005300010920B0304C030930A0320930903FF9128
:10054000EF919F918F913F912F910F900FBE0F9040
:100550001F901895882311F0289A01C028986623C7
:1005600011F0299A01C02998442311F02A9A08957C
:100570002A980895EF92FF920F931F93CF93DF93E2
:10058000D0E000E011E0EE24E3940F2EF9E1FF2E1D
:10059000F02D89B182958F70F8019481981759F0E8
:1005A00098E088E10FB6F894A895809360000FBE9C
:1005B00090936000FFCFD13510F4DF5F01C0DE2DD6
:1005C0000E94360160E28D2F0E946F010E94570148
:1005D000CF2D0E94D601882349F08DE093E00E9440
:1005E0003E0190910D0391509D3138F0F5E3FA955D
:1005F000F1F70000C15069F7CCCFDF91CF911F9187
:100600000F91FF90EF90089587E084B91AB880EFBA
:100610008BB980E48DB989B182958F708093040184
:1006200080E090E0FC01E85FFE4F1082019681308F
:1006300022E09207B9F740E061E081E00E94AA025F
:100640000E94930080E091E00E94FF010E94BA02A4
:10065000769A0E9410027894C0E0D0E00F2EF0E06D
:100660004F2EF1E05F2EF02D0DE013E00F2EFFE195
:10067000BF2EF02D0F2EFEE06F2EF3E07F2EF02D1B
:100680000F2EFDE2CF2EF3E0DF2EF02D7801E09467
:10069000F09499249394A12C89B182958F70F201E2
:1006A0009481981759F098E088E10FB6F894A895CE
:1006B000809360000FBE90936000FFCF0E94D60130
:1006C0008823F1F040E061E080E00E94AA02C801C6
:1006D0000E943E01F8018081F3019701B89E200D30
:1006E000311D1124C901DC01AE0FBF1F2191A85F8C
:1006F000BE4F2C93EC15FD05B1F7C92DDA2DCCCFEB
:1007000040E061E081E00E94AA022196C53FE1E05D
:10071000DE070CF4C1CF40E060E081E00E94AA0255
:0A0720000E94BA02B9CFF894FFCF8F
:06072A00E7E7E7E700002D
:00000001FF
